:020000040800F2
:1000000038580120DD1900086D7F0008897F00083D
:10001000A57F0008C17F0008DD7F00080000000008
:10002000000000000000000000000000F97F000850
:1000300015800008000000003180000851190008F8
:10004000391A0008391A0008391A0008391A000844
:10005000391A0008391A0008391A0008391A000834
:10006000391A0008391A0008391A0008391A000824
:10007000391A0008391A0008391A0008391A000814
:10008000391A0008391A0008391A0008391A000804
:10009000391A0008391A0008391A0008391A0008F4
:1000A000391A000819110008391A0008391A00080D
:1000B00061110008AD110008F5110008391A000897
:1000C000391A0008391A0008391A0008391A0008C4
:1000D000391A0008391A000871500008391A000846
:1000E000391A0008391A000859160008CD120008FC
:1000F00085120008391A0008391A0008391A000850
:10010000391A0008218200083D120008391A000837
:10011000391A0008391A0008391A0008391A000873
:10012000391A0008391A0008391A00082D82000807
:10013000391A0008391A0008391A0008391A000853
:10014000391A0008391A0008391A00084916000837
:10015000391A0008391A0008391A0008391A000833
:10016000391A0008391A0008391A0008391A000823
:10017000391A0008391A0008391A0008391A000813
:10018000391A0008391A000810B5054C237833B91C
:10019000044B13B10448AFF300800123237010BD5A
:1001A0001009002000000000B03D0208084B10B507
:1001B0001BB108480849AFF300800848036803B939
:1001C00010BD074B002BFBD0BDE81040184700BF07
:1001D00000000000B03D02081409002008090020BA
:1001E0000000000080B584B000AFF8600B467A6074
:1001F000FB72FB7A013B032B52D801A252F823F089
:100200001102000835020008590200087D020008AA
:10021000FB68DB6A18460EF023FD03461846796832
:100220000EF076FD034618460EF05EFF0246FB68B0
:100230005A6336E0FB68DB6A18460EF011FD034690
:10024000184679680EF064FD034618460EF04CFF20
:100250000246FB689A6324E0FB68DB6A18460EF0EE
:10026000FFFC0346184679680EF052FD0346184617
:100270000EF03AFF0246FB68DA6312E0FB68DB6AC5
:1002800018460EF0EDFC0346184679680EF040FD66
:10029000034618460EF028FF0246FB681A6400E089
:1002A00000BF1037BD4680BD80B582B000AF78601A
:1002B0000B46FB70FB78012B06D17B685B6B184605
:1002C0000EF0CEFC03461FE0FB78022B06D17B68C4
:1002D0009B6B18460EF0C4FC034615E0FB78032B1D
:1002E00006D17B68DB6B18460EF0BAFC03460BE0C8
:1002F000FB78042B06D17B681B6C18460EF0B0FC13
:10030000034601E04FF0000318460837BD4680BDA4
:1003100090B5ADB002AFF860B9603B601346FB80AA
:100320000023C7F8A4300023C7F8A0300023C7F883
:100330009C300123C7F898300023A7F8963008F0C6
:10034000E7F807F14403184607F052F9FB68B3F1E8
:10035000804F03D3FB68944A934207D9FB68934AC2
:10036000934211D9FB68924A93420DD8FB6C914A93
:10037000D2F88C20120E02F00102013202FB03F3CC
:100380005B00C7F8A4300CE03B6D8A4AD2F88C20A1
:10039000120E02F00102013202FB03F35B00C7F808
:1003A000A4303B68002B0ADDD7F8A430824A82FBD8
:1003B00003125211DB17D21A3B689A4201DA012369
:1003C000EEE01FE0D7F8A0300133C7F8A030D7F82F
:1003D000A420D7F8A03092FBF3F23B6892FBF3F332
:1003E000C7F89C30D7F89C30B3F5803F02DA002381
:1003F000C7F89830D7F8A0304FF6FE72934201DD6F
:100400000123CDE0D7F89830002BDBD1D7F8A4201A
:10041000D7F8A03092FBF3F2D7F89C3092FBF3F3BD
:100420003B60F86809F0BCFEFA88002300930220C4
:10043000B968002300F0C8FDD7F89C30013BFB638E
:10044000D7F8A0309BB2013B9BB23B870023A7F8B3
:10045000403000237B87002387F8423007F13803C0
:10046000F86819460AF03CFC6023BB8400233B86F5
:100470000123FB8404233B8508237B864FF4807390
:10048000BB864FF40073FB8607F12403F868194616
:100490000AF0FEFCF86800210AF0E8FE07F12403E8
:1004A000F86819460AF06EFDF86800210AF0FAFEB5
:1004B00007F12403F86819460AF0ECFDF8680021FA
:1004C0000AF00EFF07F12403F86819460AF068FEE7
:1004D000F86800210AF020FFFB68384A934203D0F5
:1004E000FB68374A934211D107F1140318460AF00A
:1004F00059FF4FF480433B8407F11403F868194611
:100500000AF028FFF86801210AF06AFFFA8807F16B
:1005100054031046194609F0C1FC0023A7F8963091
:1005200025E0B7F896305B0007F1A802134433F8D2
:10053000543C012B16D1B7F8963010335B0007F10D
:10054000A802134433F8523C184609F0ADFF0346A5
:100550009CB2F8680AF01EF80346B86821461A46AD
:1005600007F062FFB7F896300133A7F89630B7F876
:1005700096300F2BD5D9FB6800225A63FB68002206
:100580009A63FB680022DA63FB6800221A64F86849
:1005900001210AF03DFCF86801210AF059FC002312
:1005A0001846AC37BD4690BD00140040FF17004010
:1005B00000200040003802401F85EB510000014040
:1005C0000004014080B489B000AFF860B960114602
:1005D0001A460B46FB711346BB800023FB76FB6873
:1005E000DB78002B22D100237B610023FB61BB88D9
:1005F0000333002B00DA03339B107B61FB79FA682D
:1006000032339B0013449B683B610023FB6109E08C
:10061000BB681A683B691A60FB690133FB61BB6800
:100620000433BB60FA697B699A42F1D3FB7E1846BA
:100630002437BD465DF8047B704700BF80B489B0A5
:1006400000AFF860B9601346FB800023FB61FB88B4
:100650000333002B00DA03339B10BB61FB68D3F834
:10066000D0307B610023FB6109E07B691A68BB68BD
:100670001A60FB690133FB61BB680433BB60FA6934
:10068000BB699A42F1D3BB6818462437BD465DF872
:10069000047B704780B586B000AF78603960002376
:1006A000FB7400237B610023FB60FB6843F02003A5
:1006B000FB603B68DBB203F01F03DBB203F01F03F8
:1006C0009B01FA6822F4F8621343FB607B68DB68E5
:1006D000FA681A617B68DB681B69FB607B69013320
:1006E0007B617B69094A934200D906E0FB685B099C
:1006F00003F00103DBB2012BECD0032008F02AFA4F
:10070000FB7C18461837BD4680BD00BF400D030076
:1007100080B483B000AF78607B68DB685B6903F00E
:10072000010318460C37BD465DF8047B704700BFD7
:1007300080B582B000AF78607868FFF7E9FF0346C4
:10074000012B14BF01230023DBB218460837BD4636
:1007500080BD00BF80B485B000AF78600023FB602F
:100760007B68DB685B69FB607B68DB689B69FA68B8
:100770001340FB60FB6818461437BD465DF8047BE8
:10078000704700BF80B485B000AF78600023FB7372
:100790007B681B699B68BB603B7AC3F34103DBB298
:1007A000022B09D0032B04D0012B02D00323FB73AF
:1007B00005E00223FB7302E00123FB7300BFFB7B18
:1007C00018461437BD465DF8047B704780B487B087
:1007D00000AF78600023FB750023BB607B681B695A
:1007E0009B683B617B689B691B68FB603B7CC3F338
:1007F0004103DBB2022B04D0BB896FF30A03BB8138
:1008000005E0BB89032262F30A03BB8100BF7B685A
:100810009B69FA681A607B7A43F001037B727B68FC
:100820001B697A6812695168BA68D2431140BA6884
:100830000A435A60FB7D18461C37BD465DF8047BB1
:10084000704700BF80B487B000AF78603960002384
:10085000FB740023FB600023BB603B685B78012BCB
:100860000FD13B681B787A6804339B0013449B6864
:100870007B613B681B781A46012393409BB23B8106
:100880000EE03B681B787A6814339B0013445B6866
:100890007B613B681B781A46012393409BB27B81A6
:1008A0007B691B68FB607B7B23F07F03DBB2002B43
:1008B00027D13B689B689BB2C3F30A039AB2BB89FA
:1008C00062F30A03BB813B68DB7803F00303DAB20F
:1008D000BB7B62F38303BB733B68DB88DBB203F053
:1008E0000F03DAB2FB8962F38913FB81FB7B43F0D0
:1008F0001003FB737B7B43F080037B73FA687B6997
:100900001A607B681B697A681269D169BA680A4300
:10091000DA61FB7C18461C37BD465DF8047B7047E6
:1009200080B588B000AF786039600023FB77002382
:10093000BB6100237B6100233B613B685B78012B3B
:1009400040F0AB803B681B787A6804339B0013440B
:100950009B681B687B613B681B787A6804339B004B
:1009600013449B681B693B613B685B69002B09D1A1
:100970003B696FF312033B617B8A012262F3CC0374
:100980007B8222E03B685B69C3F312023B6962F33E
:1009900012033B613B685A693B689B6813445A1ECB
:1009A0003B689B68B2FBF3F39BB2C3F309039AB2B3
:1009B0007B8A62F3CC037B823B68DB78012B04D11A
:1009C000FB7C012262F34613FB743B681B787A6858
:1009D00004339B0013449B683A691A617B68DB7897
:1009E000012B0AD13B681B787A6804339B001344BF
:1009F0009B683A6812695A6115E03B68DB78012B05
:100A000011D03B685B69002B0DD03B681B781A4600
:100A100001239340BB617B681B697A681269516B43
:100A2000BA690A435A633B68DB78012B14D17B68AF
:100A30001B699B68FB60FB68C3F30D239BB203F04B
:100A40000103002B04D1FB7D43F02003FB7503E081
:100A5000FB7D43F01003FB75FB7D43F00403FB7546
:100A6000FB7D43F08003FB753B681B787A68043399
:100A70009B0013449B687A691A603B68DB78012B02
:100A800040F089803B68D9683B681A783B685B69AD
:100A90009BB27868FFF796FD7DE03B681B787A682B
:100AA00014339B0013445B681B687B613B681B78B5
:100AB0007A6814339B0013445B681B693B613B6895
:100AC0005B69002B0DD13B689B68C3F312023B6945
:100AD00062F312033B617B8A012262F3CC037B82C7
:100AE00020E03B685A693B689B6813445A1E3B6888
:100AF0009B68B2FBF3F39BB2C3F309039AB27B8A00
:100B000062F3CC037B827B8AC3F3C9039BB21A4690
:100B10003B689B6803FB02F3C3F312023B6962F379
:100B200012033B613B681B787A6814339B001344C3
:100B30005B683A691A617B68DB78012B09D13B68F5
:100B40001B787A6814339B0013445B683A68126917
:100B50005A613B68DB78012B0CD13B685B79002B39
:100B600004D0FB7D43F02003FB7503E0FB7D43F0E5
:100B70001003FB75FB7D43F00403FB75FB7D43F025
:100B80008003FB753B681B787A6814339B00134421
:100B90005B687A691A60FB7F18462037BD4680BDC6
:100BA00080B489B000AF786039600023FB77002300
:100BB000BB6100233B610023BB603B685B78012B7A
:100BC00070D17B689B697B617B691B683B617B693A
:100BD0001B69BB603B685B69002B09D13B7A6FF3F3
:100BE00006033B72BB7A012262F3C403BB7223E0AB
:100BF0003B685A693B689B689A420ED93B689A6881
:100C00003B685A613B689B68DBB203F07F03DAB252
:100C10003B7A62F306033B7209E03B685B69DBB237
:100C200003F07F03DAB23B7A62F306033B72BB7ACE
:100C3000012262F3C403BB72BA687B691A617B68E4
:100C4000DB78012B09D13B681B787A6804339B0061
:100C500013449B683A6812695A61FB7C43F00403B1
:100C6000FB74FB7C43F08003FB743A697B691A6078
:100C70007B68DB78002B76D13B685B69002B72D0F8
:100C80003B681B781A46012393401A46BB691343FD
:100C9000BB617B681B697A681269516BBA690A4348
:100CA0005A6360E03B681B787A6814339B001344F6
:100CB0005B681B683B613B681B787A6814339B0058
:100CC00013445B681B69BB603B685B69002B0FD1F9
:100CD0003B689B68DBB203F07F03DAB23B7A62F3D6
:100CE00006033B72BB7A012262F3C403BB7212E0BB
:100CF0003B689A683B685A613B689B68DBB203F0CB
:100D00007F03DAB23B7A62F306033B72BB7A0122BD
:100D100062F3C403BB723B681B787A6814339B0090
:100D200013445B68BA681A617B68DB78012B09D1D0
:100D30003B681B787A6814339B0013445B683A68FD
:100D400012695A61FB7C43F00403FB74FB7C43F0A3
:100D50008003FB743B681B787A6814339B00134450
:100D60005B683A691A60FB7F18462437BD465DF818
:100D7000047B704780B487B000AF7860396000238F
:100D8000FB750023FB603B685B78012B1CD13B6843
:100D90001B787A6804339B0013449B683B613B6972
:100DA0001B68FB60FB7B23F07F03DBB2002B03D0CF
:100DB000FB7B43F04003FB73BB7B43F02003BB731F
:100DC000FA683B691A6011E03B681B787A68143353
:100DD0009B0013445B683B613B691B68FB60BB7B0A
:100DE00043F02003BB73FA683B691A60FB7D184629
:100DF0001C37BD465DF8047B704700BF80B487B0E8
:100E000000AF786039600023FB740023FB603B680F
:100E10005B78012B08D13B681B787A6804339B0010
:100E200013449B687B6107E03B681B787A68143346
:100E30009B0013445B687B617B691B68FB60BB7B29
:100E40006FF34513BB733B68DB78032B03D03B6820
:100E5000DB78022B03D1FB7B43F01003FB73FA68B2
:100E60007B691A60FB7C18461C37BD465DF8047B25
:100E7000704700BF80B485B000AF78607B681B69A5
:100E80009B69FB607B681B69DB69FA681340FB6048
:100E9000FB681B0C18461437BD465DF8047B704791
:100EA00080B485B000AF78600B46FB70FB787A6841
:100EB00014339B0013445B689B68FB607B681B6971
:100EC0005B69FA681340FB60FB6818461437BD463F
:100ED0005DF8047B704700BF80B485B000AF7860D8
:100EE0007B681B699B69FB607B681B69DB69FA682F
:100EF0001340FB60FB689BB218461437BD465DF893
:100F0000047B704780B487B000AF786000233B61FA
:100F1000FB7C43F0C003FB74BB7C012262F3C4037F
:100F2000BB743B7C182262F306033B747B685B6DE9
:100F30003A691A617B68DB78012B16D10023FB60CC
:100F40007B685B6D7A6802F5B9625A617B685B6D9C
:100F50001B68FB60FB7B43F08003FB734FF0802337
:100F6000FB607B685B6DFA681A601C37BD465DF8F4
:100F7000047B704780B485B000AF78607B689B7A53
:100F8000002B1BD07B681B699B68FB603B7B03F0DD
:100F90000103DBB2002B11D07B6803F586731B685D
:100FA000BB603B7A6FF341033B723B7A6FF3000304
:100FB0003B727B68D3F80C31BA681A601437BD46AF
:100FC0005DF8047B704700BF80B584B000AF396026
:100FD00011461A460346FB710B46BB801346BB7194
:100FE0003B68254A934204D10120012106F0AAFB67
:100FF00022E03B68214A934204D10220012106F0FD
:10100000A1FB19E03B681E4A934204D10420012150
:1010100006F098FB10E03B681A4A934204D108207E
:10102000012106F08FFB07E03B68174A934203D18A
:101030001020012106F086FB07F10803184607F08F
:1010400089F9BB88BB60FB793B733B7EBB73BB7983
:10105000FB7303237B7307F108033868194607F015
:10106000EBF8FB79012B04D1BB883868194607F0EF
:10107000CDF91037BD4680BD00000240000402409B
:1010800000080240000C02400010024080B483B00F
:1010900000AF78600B46FB70FB78002B06D0094947
:1010A000084BDA6B7B681343CB6306E00549054BBD
:1010B000DA6B7B68DB431340CB630C37BD465DF8CE
:1010C000047B7047002C014080B485B000AF78608D
:1010D0000023FB73084B5A6B7B681340002B02D034
:1010E0000123FB7301E00023FB73FB7B18461437DD
:1010F000BD465DF8047B7047002C014080B483B08E
:1011000000AF7860034A7B6893630C37BD465DF897
:10111000047B7047002C014080B500AF0E4B1B884C
:101120009BB21B099BB2002B05D00C4B1B68013BEB
:101130000A4A13600BE0084B1B889BB21B099BB249
:10114000002B04D1054B1B680133044A136002488D
:1011500001210AF08FF980BD000001402C09002018
:1011600080B500AF4FF080431B889BB21B099BB238
:10117000002B05D00C4B1B68013B0B4A13600CE0A5
:101180004FF080431B889BB21B099BB2002B04D1FC
:10119000054B1B680133044A13604FF08040012166
:1011A0000AF068F980BD00BF3009002080B500AFAB
:1011B0000E4B1B889BB21B099BB2002B05D00C4B1E
:1011C0001B68013B0A4A13600BE0084B1B889BB26B
:1011D0001B099BB2002B04D1054B1B680133044A49
:1011E0001360024801210AF045F980BD0004004067
:1011F0003409002080B500AF0E4B1B889BB21B0941
:101200009BB2002B05D00C4B1B68013B0A4A1360B4
:101210000BE0084B1B889BB21B099BB2002B04D12F
:10122000054B1B680133044A1360024801210AF090
:1012300021F980BD000800403809002080B500AFCA
:101240000E4B1B889BB21B099BB2002B05D00C4B8D
:101250001B68013B0A4A13600BE0084B1B889BB2DA
:101260001B099BB2002B04D1054B1B680133044AB8
:101270001360024801210AF0FDF880BD000C004017
:101280003C09002080B500AF0E4B1B889BB21B09A8
:101290009BB2002B05D00C4B1B68013B0A4A136024
:1012A0000BE0084B1B889BB21B099BB2002B04D19F
:1012B000054B1B680133044A1360024801210AF000
:1012C000D9F880BD000401404009002080B500AF7E
:1012D0000E4B1B889BB21B099BB2002B05D00C4BFD
:1012E0001B68013B0A4A13600BE0084B1B889BB24A
:1012F0001B099BB2002B04D1054B1B680133044A28
:101300001360024801210AF0B5F880BD00180040C2
:101310004409002080B500AF044809F06DFD024685
:10132000034B1B681B041344184680BD000001409A
:101330002C09002080B500AF4FF0804009F05CFD23
:101340000246034B1B681B041344184680BD00BFB4
:101350003009002080B500AF044809F04DFD024679
:10136000034B1B681B041344184680BD0004004057
:101370003409002080B500AF044809F03DFD024665
:10138000034B1B681B041344184680BD0008004033
:101390003809002080B500AF044809F02DFD024651
:1013A000034B1B681B041344184680BD000C00400F
:1013B0003C09002080B500AF044809F01DFD02463D
:1013C000034B1B681B041344184680BD00040140F6
:1013D0004009002080B500AF044809F00DFD024629
:1013E000034B1B681B041344184680BD00180040C3
:1013F0004409002090B59DB002AFF860B960134673
:10140000FB800023A7F866300023A7F86430F86853
:1014100008F0C6FEFA88002300930220B968012371
:10142000FFF7D2FDFA8807F120031046194608F0AD
:1014300035FD0023A7F8663025E0B7F866305B007D
:1014400007F16802134433F8483C012B16D1B7F872
:10145000663010335B0007F16802134433F8463CF2
:10146000184609F021F803469CB2F86809F092F892
:101470000346B86821461A4606F0D6FFB7F866302C
:101480000133A7F86630B7F866300F2BD5D91D4B5E
:101490001B681D4AA2FB03235B0E9BB2013BA7F80E
:1014A00064304FF6FE73BB610023BB820023BB8315
:1014B0000023FB8207F11403F868194609F010FCB9
:1014C000B7F86430F8681946012209F073FCF8682F
:1014D00003210022002309F0DDFFF8680121012229
:1014E00009F0A4FFF868012109F0B2FCF86808F0DF
:1014F0000DFE0346184608F0C1FF00F055F86C37A2
:10150000BD4690BD4000002029D9426680B582B01A
:1015100000AF78607B681E4A934203D1FFF7FAFE62
:10152000034630E07B68B3F1804F03D1FFF702FF41
:10153000034628E07B68174A934203D1FFF70AFF6E
:10154000034620E07B68144A934203D1FFF712FF61
:10155000034618E07B68114A934203D1FFF71AFF54
:10156000034610E07B680E4A934203D1FFF722FF47
:10157000034608E07B680B4A934203D1FFF72AFF3A
:10158000034600E0002318460837BD4680BD00BF73
:10159000000001400004004000080040000C004032
:1015A000000401400018004080B500AF194B002234
:1015B0001A60194B00221A60184B00221A60184B4F
:1015C00000221A60174B00221A60174B00221A6083
:1015D000164B00221A601648002109F0FFFB4FF05D
:1015E0008040002109F0FAFB1248002109F0F6FBC7
:1015F0001148002109F0F2FB1048002109F0EEFB30
:101600000F48002109F0EAFB0E48002109F0E6FB33
:1016100080BD00BF2C0900203009002034090020C3
:10162000380900203C09002040090020440900201E
:10163000000001400004004000080040000C004091
:10164000000401400018004080B500AF014807F0D9
:10165000E7FE80BD4012002080B500AF094B9B7AA9
:10166000002B0AD0084A084B1B6823F006031360BE
:1016700006F022FF0348FFF77DFC4FF4802008F0BE
:10168000FFFB80BD4012002010ED00E080B58AB065
:1016900000AF7860396000237B6200233B62002347
:1016A000FB610023BB617B681B8A9BB27B627B6A08
:1016B00023F440537B623B68DB881A467B6A134302
:1016C0007B627B6A9AB27B681A827B689B899BB239
:1016D0007B627B6A23F4B05323F00C037B623B688C
:1016E0009A883B681B8913439AB23B685B89134312
:1016F0009BB21A467B6A13437B627B6A9AB27B6811
:101700009A817B689B8A9BB27B627B6A23F44073DD
:101710007B623B689B891A467B6A13437B627B6AC8
:101720009AB27B689A8207F10803184605F060FFB9
:101730007B68314A934203D07B68304A934202D19E
:101740007B693B6201E03B693B627B689B899BB2A2
:101750009BB21BB2002B0CDA3A6A13469B0013446F
:101760009A001A443B681B685B00B2FBF3F3FB6111
:101770000BE03A6A13469B0013449A001A443B68F4
:101780001B689B00B2FBF3F3FB61FB691C4AA2FBE5
:1017900003235B091B017B627B6A1B09642202FB3A
:1017A00003F3FA69D31ABB617B689B899BB29BB236
:1017B0001BB2002B0CDABB69DB003233104AA2FBF0
:1017C00003235B0903F007037A6A13437B620BE090
:1017D000BB691B0132330A4AA2FB03235B0903F0F6
:1017E0000F037A6A13437B627B6A9AB27B681A8121
:1017F0002837BD4680BD00BF0010014000140140E5
:101800001F85EB5180B483B000AF78600B46FB704E
:10181000FB78002B08D07B689B899BB243F4005374
:101820009AB27B689A8107E07B689B899BB223F41C
:1018300000539AB27B689A810C37BD465DF8047BF1
:10184000704700BF80B483B000AF78600B467B80E8
:101850007B88C3F308039AB27B689A800C37BD4635
:101860005DF8047B704700BF80B483B000AF786040
:101870007B689B889BB2C3F308039BB218460C3766
:10188000BD465DF8047B704780B487B000AF7860D8
:101890000B467B8013467B7000233B610023FB607B
:1018A0000023BB6000237B617B687B617B88DBB2AC
:1018B0005B09DBB23B617B8803F01F03FB60FB68C5
:1018C000012202FA03F3BB603B69012B03D17B6960
:1018D0000C337B6109E03B69022B03D17B69103338
:1018E0007B6102E07B6914337B617B78002B06D03F
:1018F0007B697A691168BA680A431A6006E07B69F5
:101900007A691168BA68D2430A401A601C37BD462A
:101910005DF8047B704700BF80B485B000AF78608D
:101920000B467B800023FB737B681B889AB27B8805
:1019300013409BB2002B02D00123FB7301E0002374
:10194000FB73FB7B18461437BD465DF8047B70477C
:1019500080B400AF064BD3E90023013243F100030A
:101960000349C1E90023BD465DF8047B704700BF11
:101970004809002080B500AF00F010F802460B4681
:10198000104619464FF47A724FF000030DF0CCFB6D
:1019900002460B461046194680BD00BF80B400AF1A
:1019A000094BD3E90023921843EB0303990041EA62
:1019B00092719000121843EB010310461946BD4680
:1019C0005DF8047B704700BF4809002080B500AF78
:1019D000014806F087FB80BDACC5273780B582B0D3
:1019E00000AF104B7B60104B3B6007E03B681A1D5B
:1019F0003A607A68111D796012681A603B680B4A78
:101A00009342F3D30A480B494FF000028842B8BF13
:101A100040F8042BFADB05F00DFF05F0C5FD083793
:101A2000BD4680BDD84A0208000000200C090020F5
:101A3000100900203418002080B400AFFEE700BF7A
:101A400080B584B000AF786007F108037868194664
:101A500007F07AFC3B7A03F01F03012B0AD0022B1C
:101A60000FD0002B14D107F108037868194607F04E
:101A700095F816E007F108037868194607F0DEF8D4
:101A80000FE007F108037868194607F00BF908E042
:101A90003B7A23F07F03DBB27868194608F01AFF1F
:101AA00000BF002318461037BD4680BD80B584B006
:101AB00000AF78600B46FB70FB78002B44D17B684D
:101AC00003F55C73FB607B6893F81131032B4ED1F7
:101AD000FB68DA69FB689B689A4220D9FB68DA697F
:101AE000FB689B68D21AFB68DA617B68DB78012BA4
:101AF00006D1FB68DA68FB689B681A44FB68DA6009
:101B0000FB68D968FB689A68FB68DB69934228BF69
:101B100013469BB278681A4609F030F827E07B68D4
:101B2000D3F8E0351B69002B0AD07B6893F812319B
:101B3000032B05D17B68D3F8E0351B69786898479B
:101B4000786809F02FF812E07B68D3F8E0359B69DC
:101B5000002B0CD07B6893F81231032B07D17B68E4
:101B6000D3F8E0359B69FA787868114698470023E6
:101B700018461037BD4680BD80B584B000AF786090
:101B80000B46FB70FB78002B60D17B6803F58C73F0
:101B9000FB607B6893F81131022B6AD1FB68DA692C
:101BA000FB689B689A421CD9FB68DA69FB689B68F2
:101BB000D21AFB68DA617B68DB78012B06D1FB68FF
:101BC000DA68FB689B681A44FB68DA60FB68DA68CD
:101BD000FB68DB699BB2786811461A4608F0BAFFC9
:101BE00047E0FB681B6AFA689268B3FBF2F102FBFC
:101BF00001F29B1A002B14D1FB681A6AFB689B68E0
:101C00009A420ED3FB681A6AFB685B6A9A4208D252
:101C100078680021002208F09DFFFB6800225A62CC
:101C200027E07B68D3F8E035DB68002B0AD07B68BF
:101C300093F81231032B05D17B68D3F8E035DB68CC
:101C400078689847786808F0C5FF12E07B68D3F899
:101C5000E0355B69002B0CD07B6893F81231032BC5
:101C600007D17B68D3F8E0355B69FA78786811466C
:101C70009847002318461037BD4680BD80B582B016
:101C800000AF7860786800214022002308F050FD02
:101C9000786880214022002308F04AFD7B680122F9
:101CA00083F812217B68D3F8E4355B687A68927810
:101CB00010469847002318460837BD4680BD00BF30
:101CC00080B582B000AF78607B68D3F8E4351B69DB
:101CD00098477B68032283F81221002318460837AF
:101CE000BD4680BD80B582B000AF78607B680422BD
:101CF00083F812217B68D3F8E435DB68984700232A
:101D000018460837BD4680BD80B582B000AF786008
:101D10007B68D3F8E035DB69002B05D07B68D3F80E
:101D2000E035DB6978689847002318460837BD46D8
:101D300080BD00BF80B582B000AF78600B46FB70FD
:101D40007B68D3F8E0351B68FA78786811469847C5
:101D50007B68D3F8E4359B6898470023184608371A
:101D6000BD4680BD80B582B000AF78600B46FB7089
:101D70007B68D3F8E0355B68FA7878681146984755
:101D8000002318460837BD4680BD00BF80B582B02D
:101D900000AF78607B68D3F8E0351B6A78689847B5
:101DA000002318460837BD4680BD00BF80B582B00D
:101DB00000AF78607B68D3F8E0355B6A7868984755
:101DC000002318460837BD4680BD00BF80B483B0ED
:101DD00000AF786039600C37BD465DF8047B704712
:101DE00080B582B000AF78607B68064A1A607B6875
:101DF0001033184603F0D6F97B6818460837BD46FD
:101E000080BD00BF5818020880B582B000AF78606E
:101E100039607B681846FFF7E3FF7B68074A1A6062
:101E20007B683A68C3F820217B680022C3F81C2134
:101E30007B6818460837BD4680BD00BF10160208F3
:101E400080B582B000AF78600B46FB707B6803F111
:101E50001002FB781046194603F0B8F90346002B30
:101E60000CBF01230023DBB2002B0AD0FB780D2B23
:101E700013D17B68D3F81C315A1C7B68C3F81C2132
:101E80000BE07B68D3F81C31002B06D1FB780D2BBF
:101E900003D17B680122C3F81C210837BD4680BDF1
:101EA00080B582B000AF78607B681033184603F0CD
:101EB000BDF90346002B0CBF01230023DBB21846FB
:101EC0000837BD4680BD00BF80B483B000AF7860E6
:101ED0007B68D3F81C3118460C37BD465DF8047B8F
:101EE000704700BF80B582B000AF78607B68103368
:101EF000184603F0B1F9034618460837BD4680BDC1
:101F000090B585B000AF786039607B6810331846B3
:101F100003F08CF90346002B14BF01230023DBB22E
:101F2000002B08D03B6800221A707B680022C3F89F
:101F30001C21002354E00023FB604DE0FB683A685D
:101F4000D4187B681033184603F086F903462370D3
:101F5000FB683A6813441B780D2B02D0FB68FE2BFC
:101F60001FDDFB683A68134400221A707B68103347
:101F7000184603F05BF90346002B14BF012300232E
:101F8000DBB2002B04D07B680022C3F81C2106E0E2
:101F90007B68D3F81C315A1E7B68C3F81C21FB6890
:101FA0001EE07B681033184603F040F90346002B0F
:101FB00014BF01230023DBB2002B0AD0FB683A6870
:101FC000134400221A707B680022C3F81C21FB68AE
:101FD00006E0FB680133FB60FB68FF2BAEDD0023EE
:101FE00018461437BD4690BD80B582B000AF78600A
:101FF0007B689B68012B06D17B685B681846FFF7FE
:1020000063FF034600E0002318460837BD4680BD45
:1020100080B582B000AF786039603B6800221A70EA
:102020007B689B68012B07D17B685B681846396821
:10203000FFF766FF034600E0002318460837BD4659
:1020400080BD00BF80B582B000AF78607B689B68C0
:10205000012B06D17B685B681846FFF721FF03461A
:1020600000E0002318460837BD4680BD80B582B029
:1020700000AF78607B689B68012B06D17B685B684A
:102080001846FFF72FFF034600E0002318460837E5
:10209000BD4680BD80B584B000AF78603960002354
:1020A000FB600DE07B681B6804331B68FA683968C5
:1020B0000A441278786811469847FB680133FB6040
:1020C000FB683A6813441B78002BEBD11037BD46F0
:1020D00080BD00BF90B587B002AFF860B9607A608C
:1020E0003B60FB6802229A60FB681B681C683B68C7
:1020F0000093F868B9687A683B6AA04703461846B7
:102100001437BD4690BD00BF90B587B002AFF860F0
:10211000B9607A603B60FB6801229A604FF492706C
:1021200014F002FB04462046F968FFF76DFEFB68D9
:102130005C60FB681B681C68FB685B681A467B6810
:102140000093F868B9683B68A047034618461437FF
:10215000BD4690BD80B584B000AF78607B681B68D9
:102160000C331B68786898470346FB60FB68002BBC
:1021700001D0FB6803E07B6801225A600023184607
:102180001037BD4680BD00BF80B584B000AF786019
:102190007B681B6810331B68786898470346FB60B0
:1021A000FB68002B01D0FB6803E07B6802225A60C9
:1021B000002318461037BD4680BD00BF80B584B0EF
:1021C00000AF78607B681B6814331B687868984799
:1021D0000346FB60FB68002B01D0FB6803E07B68D3
:1021E00003225A60002318461037BD4680BD00BF49
:1021F00080B584B000AF78607B681B6818331B68BB
:10220000786898470346FB60FB68002B01D0FB68A9
:1022100003E07B6804225A60002318461037BD464D
:1022200080BD00BF80B582B000AF786039607B6848
:102230005B68002B00D125E07B685B68022B07D12F
:102240007B681B6804331B6878683968984719E015
:102250003B68012B06D17B681B6824331B687868B8
:1022600098470FE03B68002B06D17B681B6828333A
:102270001B687868984705E07B681B681C331B68FF
:10228000786898470837BD4680BD00BF80B582B0EA
:1022900000AF78607B685B68002B01D1002311E000
:1022A0007B685B68012B07D17B681B6808331B6860
:1022B00078689847034605E07B681B681B68786868
:1022C0009847034618460837BD4680BD80B582B0A2
:1022D00000AF78607B681B682C331B68786801212D
:1022E00098470837BD4680BD80B582B000AF7860A2
:1022F0007B681B682C331B68786800219847083777
:10230000BD4680BD90B583B000AF78607B681B6828
:102310002C331C687B681B6830331B6878689847CF
:102320000346002B0CBF01230023DBB2786819465B
:10233000A0470C37BD4690BD80B582B000AF786035
:102340007B681B681B6878689847034618460837FF
:10235000BD4680BD80B582B000AF78607B681B68E9
:1023600004331B6878689847034618460837BD460B
:1023700080BD00BF80B584B000AFF860B9607A60FE
:10238000FB681B681B68F868B9687A689847034659
:1023900018461037BD4680BD80B582B000AF78606A
:1023A00039607B681B6804331B6878683968984714
:1023B0000837BD4680BD00BF80B582B000AF7860F1
:1023C0007B681B6808331B68786898470346184683
:1023D0000837BD4680BD00BF80B483B000AF7860D1
:1023E00040F6FF7318460C37BD465DF8047B704716
:1023F000A0F10800F0E700BF80B483B000AF7860C0
:10240000034B18460C37BD465DF8047B704700BF90
:1024100033335340A0F10800EEE700BF80B483B02F
:1024200000AF786040F6FF7318460C37BD465DF884
:10243000047B7047A0F10800F0E700BF80B483B0D0
:1024400000AF7860034B18460C37BD465DF8047B3F
:10245000704700BF33335340A0F10800EEE700BFE0
:1024600080B483B000AF786040F6FF7318460C3735
:10247000BD465DF8047B7047A0F10800F0E700BF9F
:1024800080B483B000AF7860034B18460C37BD466C
:102490005DF8047B704700BF33335340A0F1080060
:1024A000EEE700BF80B483B000AF786040F6FF7302
:1024B00018460C37BD465DF8047B7047A0F1080054
:1024C000F0E700BF80B483B000AF7860034B1846DC
:1024D0000C37BD465DF8047B704700BF3333534073
:1024E000A0F10800EEE700BF80B483B000AF7860D1
:1024F00040F6FF7318460C37BD465DF8047B704705
:10250000A0F10800F0E700BF80B483B000AF7860AE
:10251000034B18460C37BD465DF8047B704700BF7F
:1025200033335340A0F10800EEE700BF80B582B01E
:1025300000AF786004484FF4805105F03FFF034638
:1025400018460837BD4680BD0004024080B582B001
:1025500000AF786039603B68002B05D106484FF426
:10256000805105F053FF04E003484FF4805105F01B
:102570003FFF0837BD4680BD0004024080B582B0F1
:1025800000AF786004484FF4805105F0FDFE03462B
:1025900018460837BD4680BD0004024080B584B0AF
:1025A00002AF786000230093002005494FF4805269
:1025B0000023FEF709FD002318460837BD4680BDFD
:1025C0000004024080B584B002AF7860002300931D
:1025D000012005494FF480520023FEF7F5FC00234B
:1025E00018460837BD4680BD0004024080B584B05F
:1025F00002AF786000230093002005494FF4805219
:102600000123FEF7E1FC002318460837BD4680BDD4
:102610000004024080B584B002AF786000230093CC
:10262000002005494FF480520223FEF7CDFC002321
:1026300018460837BD4680BD0004024080B582B010
:1026400000AF786004484FF4004105F0B7FE034640
:1026500018460837BD4680BD0010024080B582B0E4
:1026600000AF786039603B68002B05D106484FF415
:10267000004105F0CBFE04E003484FF4004105F0B3
:10268000B7FE0837BD4680BD0010024080B582B05D
:1026900000AF786004484FF4004105F075FE034632
:1026A00018460837BD4680BD0010024080B584B092
:1026B00002AF786000230093002005494FF40042E8
:1026C0000023FEF781FC012318460837BD4680BD74
:1026D0000010024080B584B002AF78600023009300
:1026E000012005494FF400420023FEF76DFC002352
:1026F00018460837BD4680BD0010024080B584B042
:1027000002AF786000230093002005494FF4004297
:102710000123FEF759FC012318460837BD4680BD4A
:102720000010024080B584B002AF786000230093AF
:10273000002005494FF400420223FEF745FC002328
:1027400018460837BD4680BD0010024080B582B0F3
:1027500000AF786004484FF4804105F02FFE034637
:1027600018460837BD4680BD0004024080B582B0DF
:1027700000AF786039603B68002B05D106484FF404
:10278000804105F043FE04E003484FF4804105F02A
:102790002FFE0837BD4680BD0004024080B582B0E0
:1027A00000AF786004484FF4804105F0EDFD03462A
:1027B00018460837BD4680BD0004024080B584B08D
:1027C00002AF786000230093002005494FF4804257
:1027D0000023FEF7F9FB002318460837BD4680BDED
:1027E0000004024080B584B002AF786000230093FB
:1027F000012005494FF480420023FEF7E5FB00234A
:1028000018460837BD4680BD0004024080B584B03C
:1028100002AF786000230093002005494FF4804206
:102820000123FEF7D1FB002318460837BD4680BDC3
:102830000004024080B584B002AF786000230093AA
:10284000002005494FF480420223FEF7BDFB002320
:1028500018460837BD4680BD0004024080B582B0EE
:1028600000AF786004484FF4004105F0A7FD03462F
:1028700018460837BD4680BD0004024080B582B0CE
:1028800000AF786039603B68002B05D106484FF4F3
:10289000004105F0BBFD04E003484FF4004105F0A2
:1028A000A7FD0837BD4680BD0004024080B582B058
:1028B00000AF786004484FF4004105F065FD034621
:1028C00018460837BD4680BD0004024080B584B07C
:1028D00002AF786000230093002005494FF40042C6
:1028E0000023FEF771FB002318460837BD4680BD64
:1028F0000004024080B584B002AF786000230093EA
:10290000012005494FF400420023FEF75DFB002340
:1029100018460837BD4680BD0004024080B584B02B
:1029200002AF786000230093002005494FF4004275
:102930000123FEF749FB002318460837BD4680BD3A
:102940000004024080B584B002AF78600023009399
:10295000002005494FF400420223FEF735FB002317
:1029600018460837BD4680BD0004024080B582B0DD
:1029700000AF786004484FF4004105F01FFD0346A6
:1029800018460837BD4680BD0000024080B582B0C1
:1029900000AF786039603B68002B05D106484FF4E2
:1029A000004105F033FD04E003484FF4004105F019
:1029B0001FFD0837BD4680BD0000024080B582B0D3
:1029C00000AF786004484FF4004105F0DDFC034699
:1029D00018460837BD4680BD0000024080B584B06F
:1029E00002AF786000230093002005494FF40042B5
:1029F0000023FEF7E9FA002318460837BD4680BDDC
:102A00000000024080B483B000AF78600123184614
:102A10000C37BD465DF8047B704700BF80B584B0BD
:102A200002AF786000230093002005494FF4004274
:102A30000123FEF7C9FA002318460837BD4680BDBA
:102A40000000024080B584B002AF7860002300939C
:102A5000002005494FF400420223FEF7B5FA002397
:102A600018460837BD4680BD0000024080B582B0E0
:102A700000AF786004484FF4005105F09FFC034616
:102A800018460837BD4680BD0004024080B582B0BC
:102A900000AF786039603B68002B05D106484FF4E1
:102AA000005105F0B3FC04E003484FF4005105F079
:102AB0009FFC0837BD4680BD0004024080B582B04F
:102AC00000AF786004484FF4005105F05DFC034608
:102AD00018460837BD4680BD0004024080B584B06A
:102AE00002AF786000230093002005494FF40052A4
:102AF0000023FEF769FA002318460837BD4680BD5B
:102B00000004024080B483B000AF7860012318460F
:102B10000C37BD465DF8047B704700BF80B584B0BC
:102B200002AF786000230093002005494FF4005263
:102B30000123FEF749FA002318460837BD4680BD39
:102B40000004024080B584B002AF78600023009397
:102B5000002005494FF400520223FEF735FA002306
:102B600018460837BD4680BD0004024080B582B0DB
:102B700000AF786004484FF4006105F01FFC034685
:102B800018460837BD4680BD000C024080B582B0B3
:102B900000AF786039603B68002B05D106484FF4E0
:102BA000006105F033FC04E003484FF4006105F0D8
:102BB0001FFC0837BD4680BD000C024080B582B0C6
:102BC00000AF786004484FF4006105F0DDFB034678
:102BD00018460837BD4680BD000C024080B584B061
:102BE00002AF786000230093002005494FF4006293
:102BF0000023FEF7E9F9002318460837BD4680BDDB
:102C0000000C024080B483B000AF78600123184606
:102C10000C37BD465DF8047B704700BF80B584B0BB
:102C200002AF786000230093002005494FF4006252
:102C30000123FEF7C9F9002318460837BD4680BDB9
:102C4000000C024080B584B002AF7860002300938E
:102C5000002005494FF400620223FEF7B5F9002376
:102C600018460837BD4680BD000C024080B582B0D2
:102C700000AF786004484FF4806105F09FFB034685
:102C800018460837BD4680BD000C024080B582B0B2
:102C900000AF786039603B68002B05D106484FF4DF
:102CA000806105F0B3FB04E003484FF4806105F058
:102CB0009FFB0837BD4680BD000C024080B582B046
:102CC00000AF786004484FF4806105F05DFB034677
:102CD00018460837BD4680BD000C024080B584B060
:102CE00002AF786000230093002005494FF4806212
:102CF0000023FEF769F9002318460837BD4680BD5A
:102D0000000C024080B483B000AF78600123184605
:102D10000C37BD465DF8047B704700BF80B584B0BA
:102D200002AF786000230093002005494FF48062D1
:102D30000123FEF749F9002318460837BD4680BD38
:102D4000000C024080B584B002AF7860002300938D
:102D5000002005494FF480620223FEF735F9002375
:102D600018460837BD4680BD000C024080B582B0D1
:102D700000AF78600448022105F020FB03461846A6
:102D80000837BD4680BD00BF0004024080B582B058
:102D900000AF786039603B68002B04D10548022100
:102DA00005F034FB03E00348022105F021FB08375E
:102DB000BD4680BD0004024080B582B000AF78609F
:102DC0000448022105F0E0FA034618460837BD46DC
:102DD00080BD00BF0004024080B584B002AF7860BF
:102DE000002300930020054902220023FEF7ECF89F
:102DF000002318460837BD4680BD00BF00040240CE
:102E000080B584B002AF78600023009301200549AB
:102E100002220023FEF7D8F8002318460837BD46E3
:102E200080BD00BF0004024080B584B002AF78606E
:102E3000002300930020054902220123FEF7C4F875
:102E4000002318460837BD4680BD00BF000402407D
:102E500080B584B002AF786000230093002005495C
:102E600002220223FEF7B0F8002318460837BD46B9
:102E700080BD00BF0004024080B582B000AF786022
:102E80000448102105F09AFA034618460837BD4653
:102E900080BD00BF0000024080B582B000AF786006
:102EA00039603B68002B04D10548102105F0AEFACB
:102EB00003E00348102105F09BFA0837BD4680BDAA
:102EC0000000024080B582B000AF78600448102155
:102ED00005F05AFA034618460837BD4680BD00BFC4
:102EE0000000024080B584B002AF786000230093F8
:102EF0000020054910220023FEF766F8002318463B
:102F00000837BD4680BD00BF0000024080B584B0D8
:102F100002AF7860002300930120054910220023AE
:102F2000FEF752F8002318460837BD4680BD00BFA3
:102F30000000024080B584B002AF786000230093A7
:102F40000020054910220123FEF73EF80023184611
:102F50000837BD4680BD00BF0000024080B584B088
:102F600002AF78600023009300200549102202235D
:102F7000FEF72AF8002318460837BD4680BD00BF7B
:102F80000000024080B582B000AF786004480121A3
:102F900005F014FA034618460837BD4680BD00BF49
:102FA0000008024080B582B000AF786039603B68AD
:102FB000002B04D10548012105F028FA03E003485D
:102FC000012105F015FA0837BD4680BD0008024012
:102FD00080B582B000AF78600448012105F0D4F9D3
:102FE000034618460837BD4680BD00BF00080240B2
:102FF00080B584B002AF78600023009300200549BB
:1030000001220023FDF7E0FF002318460837BD46E4
:1030100080BD00BF0008024080B584B002AF786078
:10302000002300930120054901220023FDF7CCFF76
:10303000002318460837BD4680BD00BF0008024087
:1030400080B584B002AF786000230093002005496A
:1030500001220123FDF7B8FF002318460837BD46BB
:1030600080BD00BF0008024080B584B002AF786028
:10307000002300930020054901220223FDF7A4FF4D
:10308000002318460837BD4680BD00BF0008024037
:1030900080B582B000AF786004484FF4805105F0ED
:1030A0008DF9034618460837BD4680BD0010024022
:1030B00080B582B000AF786039603B68002B05D1E5
:1030C00006484FF4805105F0A1F904E003484FF49D
:1030D000805105F08DF90837BD4680BD00100240D3
:1030E00080B582B000AF786004484FF4805105F09D
:1030F0004BF9034618460837BD4680BD0010024014
:1031000080B584B002AF78600023009300200549A9
:103110004FF480520023FDF757FF0023184608376D
:10312000BD4680BD0010024080B584B002AF78601B
:1031300000230093012005494FF480520023FDF73E
:1031400043FF002318460837BD4680BD00100240EB
:1031500080B584B002AF7860002300930020054959
:103160004FF480520123FDF72FFF00231846083744
:10317000BD4680BD0010024080B584B002AF7860CB
:1031800000230093002005494FF480520223FDF7ED
:103190001BFF002318460837BD4680BD00100240C3
:1031A00080B582B000AF78600448202105F006F9B0
:1031B000034618460837BD4680BD00BF00000240E8
:1031C00080B582B000AF786039603B68002B04D1D5
:1031D0000548202105F01AF903E00348202105F0F5
:1031E00007F90837BD4680BD0000024080B582B0B7
:1031F00000AF78600448202105F0C6F80346184661
:103200000837BD4680BD00BF0000024080B584B0D5
:1032100002AF78600023009300200549202200239C
:10322000FDF7D2FE002318460837BD4680BD00BF1B
:103230000000024080B584B002AF786000230093A4
:103240000120054920220023FDF7BEFE0023184679
:103250000837BD4680BD00BF0000024080B584B085
:1032600002AF78600023009300200549202201234B
:10327000FDF7AAFE002318460837BD4680BD00BFF3
:103280000000024080B584B002AF78600023009354
:103290000020054920220223FDF796FE0023184650
:1032A0000837BD4680BD00BF0000024080B582B037
:1032B00000AF78600448042105F080F80346184602
:1032C0000837BD4680BD00BF0004024080B582B013
:1032D00000AF786039603B68002B04D105480421B9
:1032E00005F094F803E00348042105F081F808375D
:1032F000BD4680BD0004024080B582B000AF78605A
:103300000448042105F040F8034618460837BD4636
:1033100080BD00BF0004024080B584B002AF786079
:10332000002300930020054904220023FDF74CFEF2
:10333000002318460837BD4680BD00BF0004024088
:1033400080B584B002AF7860002300930120054966
:1033500004220023FDF738FE002318460837BD4637
:1033600080BD00BF0004024080B584B002AF786029
:10337000002300930020054904220123FDF724FEC9
:10338000002318460837BD4680BD00BF0004024038
:1033900080B584B002AF7860002300930020054917
:1033A00004220223FDF710FE002318460837BD460D
:1033B00080BD00BF0004024080B582B000AF7860DD
:1033C0000448802104F0FAFF034618460837BD463A
:1033D00080BD00BF0010024080B582B000AF7860B1
:1033E00039603B68002B04D10548802105F00EF8B8
:1033F00003E00348802104F0FBFF0837BD4680BD91
:103400000010024080B582B000AF7860044880218F
:1034100004F0BAFF034618460837BD4680BD00BF1A
:103420000010024080B584B002AF786000230093A2
:103430000020054980220023FDF7C6FD0023184621
:103440000837BD4680BD00BF0010024080B584B083
:1034500002AF7860002300930120054980220023F9
:10346000FDF7B2FD002318460837BD4680BD00BFFA
:103470000010024080B584B002AF78600023009352
:103480000020054980220123FDF79EFD00231846F8
:103490000837BD4680BD00BF0010024080B584B033
:1034A00002AF7860002300930020054980220223A8
:1034B000FDF78AFD002318460837BD4680BD00BFD2
:1034C0000010024080B582B000AF786004484FF42D
:1034D000806104F073FF034618460837BD4680BD7F
:1034E0000010024080B582B000AF786039603B6860
:1034F000002B05D106484FF4806104F087FF04E0FB
:1035000003484FF4806104F073FF0837BD4680BD67
:103510000010024080B582B000AF786004484FF4DC
:10352000806104F031FF034618460837BD4680BD70
:103530000010024080B584B002AF78600023009391
:10354000002005494FF480620023FDF73DFD002374
:1035500018460837BD4680BD0010024080B584B0D3
:1035600002AF786000230093012005494FF4806288
:103570000023FDF729FD002318460837BD4680BD0E
:103580000010024080B584B002AF78600023009341
:10359000002005494FF480620123FDF715FD00234B
:1035A00018460837BD4680BD0010024080B584B083
:1035B00002AF786000230093002005494FF4806239
:1035C0000223FDF701FD002318460837BD4680BDE4
:1035D0000010024080B582B000AF7860044801213D
:1035E00004F0ECFE034618460837BD4680BD00BF18
:1035F0000004024080B582B000AF786039603B685B
:10360000002B04D10548012104F000FF03E003482A
:10361000012104F0EDFE0837BD4680BD00040240E4
:1036200080B582B000AF78600448012104F0ACFEA0
:10363000034618460837BD4680BD00BF000402405F
:1036400080B584B002AF7860002300930020054964
:1036500001220023FDF7B8FC002318460837BD46B9
:1036600080BD00BF0004024080B584B002AF786026
:10367000002300930120054901220023FDF7A4FC4B
:10368000002318460837BD4680BD00BF0004024035
:1036900080B584B002AF7860002300930020054914
:1036A00001220123FDF790FC002318460837BD4690
:1036B00080BD00BF0004024080B584B002AF7860D6
:1036C000002300930020054901220223FDF77CFC22
:1036D000002318460837BD4680BD00BF00040240E5
:1036E00080B582B000AF78600448102104F066FE17
:1036F000034618460837BD4680BD00BF0010024093
:1037000080B582B000AF786039603B68002B04D18F
:103710000548102104F07AFE03E00348102104F06C
:1037200067FE0837BD4680BD0010024080B582B0FC
:1037300000AF78600448102104F026FE03461846C6
:103740000837BD4680BD00BF0010024080B584B080
:1037500002AF786000230093002005491022002367
:10376000FDF732FC002318460837BD4680BD00BF78
:103770000010024080B584B002AF7860002300934F
:103780000120054910220023FDF71EFC00231846E6
:103790000837BD4680BD00BF0010024080B584B030
:1037A00002AF786000230093002005491022012316
:1037B000FDF70AFC002318460837BD4680BD00BF50
:1037C0000010024080B584B002AF786000230093FF
:1037D0000020054910220223FDF7F6FB00231846BE
:1037E0000837BD4680BD00BF0010024080B582B0E2
:1037F00000AF78600448042104F0E0FD0346184659
:103800000837BD4680BD00BF0010024080B582B0C1
:1038100000AF786039603B68002B04D10548042173
:1038200004F0F4FD03E00348042104F0E1FD08374F
:10383000BD4680BD0010024080B582B000AF786008
:103840000448042104F0A0FD034618460837BD468D
:1038500080BD00BF0010024080B584B002AF786028
:10386000002300930020054904220023FDF7ACFB50
:10387000002318460837BD4680BD00BF0010024037
:1038800080B584B002AF7860002300930120054921
:1038900004220023FDF798FB002318460837BD4695
:1038A00080BD00BF0010024080B584B002AF7860D8
:1038B000002300930020054904220123FDF784FB27
:1038C000002318460837BD4680BD00BF00100240E7
:1038D00080B584B002AF78600023009300200549D2
:1038E00004220223FDF770FB002318460837BD466B
:1038F00080BD00BF0010024080B582B000AF78608C
:1039000004484FF4807104F059FD03461846083707
:10391000BD4680BD0010024080B582B000AF786027
:1039200039603B68002B05D106484FF4807104F0E4
:103930006DFD04E003484FF4807104F059FD083731
:10394000BD4680BD0010024080B582B000AF7860F7
:1039500004484FF4807104F017FD034618460837F9
:10396000BD4680BD0010024080B584B002AF7860D3
:1039700000230093002005494FF480720023FDF7D7
:1039800023FB002318460837BD4680BD00100240C7
:1039900080B584B002AF7860002300930120054910
:1039A0004FF480720023FDF70FFB00231846083701
:1039B000BD4680BD0010024080B584B002AF786083
:1039C00000230093002005494FF480720123FDF786
:1039D000FBFA002318460837BD4680BD00100240A0
:1039E00080B584B002AF78600023009300200549C1
:1039F0004FF480720223FDF7E7FA002318460837D8
:103A0000BD4680BD0010024080B582B000AF786036
:103A10000448082104F0D2FC034618460837BD4686
:103A200080BD00BF0010024080B582B000AF78605A
:103A300039603B68002B04D10548082104F0E6FCFE
:103A400003E00348082104F0D3FC0837BD4680BDDD
:103A50000010024080B582B000AF786004480821B1
:103A600004F092FC034618460837BD4680BD00BFEF
:103A70000010024080B584B002AF7860002300934C
:103A80000020054908220023FDF79EFA002318466E
:103A90000837BD4680BD00BF0010024080B584B02D
:103AA00002AF78600023009301200549082200231B
:103AB000FDF78AFA002318460837BD4680BD00BFCF
:103AC0000010024080B584B002AF786000230093FC
:103AD0000020054908220123FDF776FA0023184645
:103AE0000837BD4680BD00BF0010024080B584B0DD
:103AF00002AF7860002300930020054908220223CA
:103B0000FDF762FA002318460837BD4680BD00BFA6
:103B10000010024080B582B000AF786004482021D8
:103B200004F04CFC034618460837BD4680BD00BF74
:103B30000008024080B582B000AF786039603B6811
:103B4000002B04D10548202104F060FC03E0034869
:103B5000202104F04DFC0837BD4680BD000802401E
:103B600080B582B000AF78600448202104F00CFCDE
:103B7000034618460837BD4680BD00BF0008024016
:103B800080B584B002AF786000230093002005491F
:103B900020220023FDF718FA002318460837BD46F7
:103BA00080BD00BF0008024080B584B002AF7860DD
:103BB0007B680222DA60002300930120044920225E
:103BC0000023FDF701FA002318460837BD4680BDE3
:103BD0000008024080B584B002AF786000230093F3
:103BE0000020054920220123FDF7EEF900231846A5
:103BF0000837BD4680BD00BF0008024080B584B0D4
:103C000002AF7860002300930020054920220223A0
:103C1000FDF7DAF9002318460837BD4680BD00BF1E
:103C20000008024080B582B000AF786004480221ED
:103C300004F0C4FB034618460837BD4680BD00BFEC
:103C40000008024080B582B000AF786039603B6800
:103C5000002B04D10548022104F0D8FB03E00348FF
:103C6000022104F0C5FB0837BD4680BD00080240B4
:103C700080B582B000AF78600448022104F084FB74
:103C8000034618460837BD4680BD00BF0008024005
:103C900080B584B002AF786000230093002005490E
:103CA00002220023FDF790F9002318460837BD468D
:103CB00080BD00BF0008024080B584B002AF7860CC
:103CC0007B680222DA60002300930120044902226B
:103CD0000023FDF779F9002318460837BD4680BD5B
:103CE0000008024080B584B002AF786000230093E2
:103CF0000020054902220123FDF766F9002318463A
:103D00000837BD4680BD00BF0008024080B584B0C2
:103D100002AF7860002300930020054902220223AD
:103D2000FDF752F9002318460837BD4680BD00BF95
:103D30000008024080B582B000AF786004480421DA
:103D400004F03CFB034618460837BD4680BD00BF63
:103D50000008024080B582B000AF786039603B68EF
:103D6000002B04D10548042104F050FB03E0034874
:103D7000042104F03DFB0837BD4680BD0008024029
:103D800080B582B000AF78600448042104F0FCFAEA
:103D9000034618460837BD4680BD00BF00080240F4
:103DA00080B584B002AF78600023009300200549FD
:103DB00004220023FDF708F9002318460837BD4602
:103DC00080BD00BF0008024080B584B002AF7860BB
:103DD0007B680222DA600023009301200449042258
:103DE0000023FDF7F1F8002318460837BD4680BDD3
:103DF0000008024080B584B002AF786000230093D1
:103E00000020054904220123FDF7DEF800231846AF
:103E10000837BD4680BD00BF0008024080B584B0B1
:103E200002AF78600023009300200549042202239A
:103E3000FDF7CAF8002318460837BD4680BD00BF0D
:103E40000008024080B582B000AF786004480821C5
:103E500004F0B4FA034618460837BD4680BD00BFDB
:103E60000008024080B582B000AF786039603B68DE
:103E7000002B04D10548082104F0C8FA03E00348E8
:103E8000082104F0B5FA0837BD4680BD000802409D
:103E900080B582B000AF78600448082104F074FA5D
:103EA000034618460837BD4680BD00BF00080240E3
:103EB00080B584B002AF78600023009300200549EC
:103EC00008220023FDF780F8002318460837BD4676
:103ED00080BD00BF0008024080B584B002AF7860AA
:103EE0007B680222DA600023009301200449082243
:103EF0000023FDF769F8002318460837BD4680BD4A
:103F00000008024080B584B002AF786000230093BF
:103F10000020054908220123FDF756F80023184622
:103F20000837BD4680BD00BF0008024080B584B0A0
:103F300002AF786000230093002005490822022385
:103F4000FDF742F8002318460837BD4680BD00BF84
:103F50000008024080B582B000AF786004481021AC
:103F600004F02CFA034618460837BD4680BD00BF52
:103F70000008024080B582B000AF786039603B68CD
:103F8000002B04D10548102104F040FA03E0034857
:103F9000102104F02DFA0837BD4680BD000802400C
:103FA00080B582B000AF78600448102104F0ECF9CD
:103FB000034618460837BD4680BD00BF00080240D2
:103FC00080B584B002AF78600023009300200549DB
:103FD00010220023FCF7F8FF002318460837BD46DF
:103FE00080BD00BF0008024080B584B002AF786099
:103FF0007B680222DA60002300930120044910222A
:104000000023FCF7E1FF002318460837BD4680BDBA
:104010000008024080B584B002AF786000230093AE
:104020000020054910220123FCF7CEFF002318468B
:104030000837BD4680BD00BF0008024080B584B08F
:1040400002AF78600023009300200549102202236C
:10405000FCF7BAFF002318460837BD4680BD00BFF5
:104060000008024080B582B000AF786004484FF489
:10407000006104F0A3F9034618460837BD4680BD29
:104080000010024080B582B000AF786039603B68B4
:10409000002B05D106484FF4006104F0B7F904E0A5
:1040A00003484FF4006104F0A3F90837BD4680BD12
:1040B0000010024080B582B000AF786004484FF431
:1040C000006104F061F9034618460837BD4680BD1B
:1040D0000010024080B584B002AF786000230093E6
:1040E000002005494FF400620023FCF76DFF002318
:1040F00018460837BD4680BD0010024080B584B028
:1041000002AF78607B680222DA600023009301200E
:1041100005494FF400620023FCF756FF00231846C0
:104120000837BD4680BD00BF0010024080B584B096
:1041300002AF786000230093002005494FF400622D
:104140000123FCF741FF002318460837BD4680BD18
:104150000010024080B584B002AF78600023009365
:10416000002005494FF400620223FCF72DFF0023D5
:1041700018460837BD4680BD0010024080B582B0A9
:1041800000AF78600448402104F018F9034618464F
:104190000837BD4680BD00BF0010024080B582B028
:1041A00000AF786039603B68002B04D1054840219E
:1041B00004F02CF903E00348402104F019F9083712
:1041C000BD4680BD0010024080B582B000AF78606F
:1041D0000448402104F0D8F8034618460837BD4685
:1041E00080BD00BF0010024080B584B002AF78608F
:1041F000002300930020054940220023FCF7E4FE41
:10420000002318460837BD4680BD00BF001002409D
:1042100080B584B002AF78607B680222DA60002348
:1042200000930120044940220023FCF7CDFE002327
:1042300018460837BD4680BD0010024080B584B0E6
:1042400002AF78600023009300200549402201233B
:10425000FCF7BAFE002318460837BD4680BD00BFF4
:104260000010024080B584B002AF78600023009354
:104270000020054940220223FCF7A6FE0023184631
:104280000837BD4680BD00BF0010024080B582B037
:1042900000AF78600448202104F090F803461846E7
:1042A0000837BD4680BD00BF0010024080B582B017
:1042B00000AF786039603B68002B04D105482021AD
:1042C00004F0A4F803E00348202104F091F8083733
:1042D000BD4680BD0010024080B582B000AF78605E
:1042E0000448202104F050F8034618460837BD461C
:1042F00080BD00BF0010024080B584B002AF78607E
:10430000002300930020054920220023FCF75CFED7
:10431000002318460837BD4680BD00BF001002408C
:1043200080B584B002AF78607B680222DA60002337
:1043300000930120044920220023FCF745FE0023BE
:1043400018460837BD4680BD0010024080B584B0D5
:1043500002AF78600023009300200549202201234A
:10436000FCF732FE002318460837BD4680BD00BF6B
:104370000010024080B584B002AF78600023009343
:104380000020054920220223FCF71EFE00231846C8
:104390000837BD4680BD00BF0010024080B582B026
:1043A00000AF786004484FF4007104F007F803464A
:1043B00018460837BD4680BD0010024080B582B067
:1043C00000AF786039603B68002B05D106484FF498
:1043D000007104F01BF804E003484FF4007104F08E
:1043E00007F80837BD4680BD0010024080B582B096
:1043F00000AF786004484FF4007103F0C5FF034636
:1044000018460837BD4680BD0010024080B584B014
:1044100002AF786000230093002005494FF400723A
:104420000023FCF7D1FD002318460837BD4680BDA8
:104430000010024080B584B002AF78607B68022231
:10444000DA6000230093012005494FF40072002335
:10445000FCF7BAFD002318460837BD4680BD00BFF3
:104460000010024080B584B002AF78600023009352
:10447000002005494FF400720123FCF7A5FD00233D
:1044800018460837BD4680BD0010024080B584B094
:1044900002AF786000230093002005494FF40072BA
:1044A0000223FCF791FD002318460837BD4680BD66
:1044B0000010024080B582B000AF786004484FF42D
:1044C000804103F07BFF034618460837BD4680BD98
:1044D0000010024080B582B000AF786039603B6860
:1044E000002B05D106484FF4804103F08FFF04E014
:1044F00003484FF4804103F07BFF0837BD4680BD81
:104500000010024080B582B000AF786004484FF4DC
:10451000804103F039FF034618460837BD4680BD89
:104520000010024080B584B002AF78600023009391
:10453000002005494FF480420023FCF745FD00238D
:1045400018460837BD4680BD0010024080B584B0D3
:1045500002AF78607B680222DA60002300930120BA
:1045600005494FF480420023FCF72EFD0023184636
:104570000837BD4680BD00BF0010024080B584B042
:1045800002AF786000230093002005494FF4804279
:104590000123FCF719FD002318460837BD4680BDEE
:1045A0000010024080B584B002AF78600023009311
:1045B000002005494FF480420223FCF705FD00234B
:1045C00018460837BD4680BD0010024080B582B055
:1045D00000AF786004484FF4005103F0EFFE03464B
:1045E00018460837BD4680BD0010024080B582B035
:1045F00000AF786039603B68002B05D106484FF466
:10460000005103F003FF04E003484FF4005103F0AE
:10461000EFFE0837BD4680BD0010024080B582B075
:1046200000AF786004484FF4005103F0ADFE03463C
:1046300018460837BD4680BD0010024080B584B0E2
:1046400002AF786000230093002005494FF4005228
:104650000023FCF7B9FC002318460837BD4680BD8F
:104660000010024080B584B002AF78607B680222FF
:10467000DA6000230093012005494FF40052002323
:10468000FCF7A2FC002318460837BD4680BD00BFDA
:104690000010024080B584B002AF78600023009320
:1046A000002005494FF400520123FCF78DFC002344
:1046B00018460837BD4680BD0010024080B584B062
:1046C00002AF786000230093002005494FF40052A8
:1046D0000223FCF779FC002318460837BD4680BD4D
:1046E0000010024080B582B000AF78607B68012284
:1046F000DA600448202103F01FFB00231846083726
:10470000BD4680BD00080240A0F10800FFF7EABFE7
:1047100090B583B000AF78600C48202103F0F4FB23
:1047200004467B681B6848331B68786898470346D3
:1047300018460AF099FA0346204619460AF09CFBEF
:10474000034618460C37BD4690BD00BF0008024026
:10475000A0F10800FFF7DCBF80B582B000AF786041
:104760007B680122DA600448022103F0E5FA0023A5
:1047700018460837BD4680BD00080240A0F1080079
:10478000FFF7EABF90B583B000AF78600C48022114
:1047900003F0BAFB04467B681B6848331B687868E3
:1047A0009847034618460AF05FFA03462046194622
:1047B0000AF062FB034618460C37BD4690BD00BFA9
:1047C00000080240A0F10800FFF7DCBF80B582B00E
:1047D00000AF78607B680122DA600448042103F0AE
:1047E000ABFA002318460837BD4680BD00080240DA
:1047F000A0F10800FFF7EABF90B583B000AF786082
:104800000C48042103F080FB04467B681B68483396
:104810001B6878689847034618460AF025FA03464D
:10482000204619460AF028FB034618460C37BD46B9
:1048300090BD00BF00080240A0F10800FFF7DCBFF8
:1048400080B582B000AF78607B680122DA600448EE
:10485000082103F071FA002318460837BD4680BDD1
:1048600000080240A0F10800FFF7EABF90B583B04E
:1048700000AF78600C48082103F046FB04467B68D3
:104880001B6848331B6878689847034618460AF047
:10489000EBF90346204619460AF0EEFA034618469D
:1048A0000C37BD4690BD00BF00080240A0F10800D3
:1048B000FFF7DCBF80B582B000AF78607B68012273
:1048C000DA600448102103F037FA0023184608374D
:1048D000BD4680BD00080240A0F10800FFF7EABF16
:1048E00090B583B000AF78600C48102103F00CFB4A
:1048F00004467B681B6848331B6878689847034602
:1049000018460AF0B1F90346204619460AF0B4FAEF
:10491000034618460C37BD4690BD00BF0008024054
:10492000A0F10800FFF7DCBF80B582B000AF78606F
:10493000054806494FF44052FCF75CFD0023184639
:104940000837BD4680BD00BF00080040000C024093
:1049500080B582B000AF78607B681B7A002B05D0F1
:104960000648FCF7D3FD03465B4203E00348FCF72F
:10497000CDFD034618460837BD4680BD00080040FF
:1049800080B582B000AF786004480549C022FCF7CA
:1049900031FD002318460837BD4680BD00040040A5
:1049A0000000024080B582B000AF78607B681B7A5F
:1049B000002B05D00648FCF7A9FD03465B4203E047
:1049C0000348FCF7A3FD034618460837BD4680BDE3
:1049D0000004004080B582B000AF7860044805490B
:1049E0000322FCF707FD002318460837BD4680BDAB
:1049F000000C00400000024080B582B000AF78603B
:104A00007B681B7A002B05D00648FCF77FFD034628
:104A10005B4203E00348FCF779FD0346184608377C
:104A2000BD4680BD000C004080B586B000AFF86088
:104A3000B9607A60FB680122DA60B8680AF02EFB80
:104A40000346094809494FF40062FBF761FC03463D
:104A50007B61054802217A68FBF7C4FB7B69184635
:104A60001837BD4680BD00BF000001400010024065
:104A7000A0F10800FFF7D8BF80B582B000AF786022
:104A80003960044802213A68FBF7ACFB0837BD46A1
:104A900080BD00BF00000140A0F10800FFF7ECBF9F
:104AA00080B582B000AF786004480221FBF7FCFBC0
:104AB000034618460837BD4680BD00BF00000140D0
:104AC000A0F10800FFF7ECBF80B586B000AFF8603A
:104AD000B9607A60FB680122DA60B8680AF0DEFA31
:104AE0000346084808494022FBF712FC03467B6155
:104AF000044802217A68FBF775FB7B691846183772
:104B0000BD4680BD0040014000100240A0F10800F9
:104B1000FFF7DABF80B582B000AF78603960044833
:104B200002213A68FBF75EFB0837BD4680BD00BF37
:104B300000400140A0F10800FFF7ECBF80B582B053
:104B400000AF786004480221FBF7AEFB034618462D
:104B50000837BD4680BD00BF00400140A0F10800FD
:104B6000FFF7ECBF80B586B000AFF860B9607A603F
:104B7000FB680122DA60B8680AF090FA0346084838
:104B800008492022FBF7C4FB03467B61044801214E
:104B90007A68FBF727FB7B6918461837BD4680BD4E
:104BA0000040014000100240A0F10800FFF7DABF0A
:104BB00080B582B000AF78603960044801213A685E
:104BC000FBF710FB0837BD4680BD00BF0040014029
:104BD000A0F10800FFF7ECBF80B582B000AF7860AD
:104BE00004480121FBF760FB034618460837BD4621
:104BF00080BD00BF00400140A0F10800FFF7ECBFFE
:104C000080B586B000AFF860B9607A60FB680122B9
:104C1000DA60B8680AF042FA0346094809494FF4D5
:104C20000072FBF775FB03467B61054801217A683A
:104C3000FBF7D8FA7B6918461837BD4680BD00BF20
:104C40000000014000100240A0F10800FFF7D8BFAB
:104C500080B582B000AF78603960044801213A68BD
:104C6000FBF7C0FA0837BD4680BD00BF0000014019
:104C7000A0F10800FFF7ECBF80B582B000AF78600C
:104C800004480121FBF710FB034618460837BD46D0
:104C900080BD00BF00000140A0F10800FFF7ECBF9D
:104CA00080B586B000AFF860B9607A60FB68012219
:104CB000DA60B8680AF0F2F90346094809494FF486
:104CC0008042FBF725FB03467B61054804217A6897
:104CD000FBF788FA7B6918461837BD4680BD00BFD0
:104CE0000000014000100240A0F10800FFF7D8BF0B
:104CF00080B582B000AF78603960044804213A681A
:104D0000FBF770FA0837BD4680BD00BF00000140C8
:104D1000A0F10800FFF7ECBF80B582B000AF78606B
:104D200004480421FBF7C0FA034618460837BD467D
:104D300080BD00BF00000140A0F10800FFF7ECBFFC
:104D400080B586B000AFF860B9607A60FB68012278
:104D5000DA60B8680AF0A2F90346094809494FF435
:104D60000052FBF7D5FA03467B61054803217A68B8
:104D7000FBF738FA7B6918461837BD4680BD00BF7F
:104D80000000014000100240A0F10800FFF7D8BF6A
:104D900080B582B000AF78603960044803213A687A
:104DA000FBF720FA0837BD4680BD00BF0000014078
:104DB000A0F10800FFF7ECBF80B582B000AF7860CB
:104DC00004480321FBF770FA034618460837BD462E
:104DD00080BD00BF00000140A0F10800FFF7ECBF5C
:104DE00080B586B000AFF860B9607A60FB680122D8
:104DF000DA60B8680AF052F90346094809494FF4E5
:104E00008042FBF785FA03467B61054802217A68F8
:104E1000FBF7E8F97B6918461837BD4680BD00BF2F
:104E20000004014000040240A0F10800FFF7D8BFD1
:104E300080B582B000AF78603960044802213A68DA
:104E4000FBF7D0F90837BD4680BD00BF0004014024
:104E5000A0F10800FFF7ECBF80B582B000AF78602A
:104E600004480221FBF720FA034618460837BD46DE
:104E700080BD00BF00040140A0F10800FFF7ECBFB7
:104E800080B586B000AFF860B9607A60FB68012237
:104E9000DA60B8680AF002F90346094809494FF494
:104EA0000042FBF735FA03467B61054803217A6827
:104EB000FBF798F97B6918461837BD4680BD00BFDF
:104EC0000004014000040240A0F10800FFF7D8BF31
:104ED00080B582B000AF78603960044803213A6839
:104EE000FBF780F90837BD4680BD00BF00040140D4
:104EF000A0F10800FFF7ECBF80B582B000AF78608A
:104F000004480321FBF7D0F9034618460837BD468D
:104F100080BD00BF00040140A0F10800FFF7ECBF16
:104F200080B586B000AFF860B9607A60FB68012296
:104F3000DA60B8680AF0B2F8034608480849022265
:104F4000FBF7E6F903467B61044803217A68FBF727
:104F500049F97B6918461837BD4680BD00040140F9
:104F600000040240A0F10800FFF7DABF80B582B06C
:104F700000AF78603960044803213A68FBF732F9E2
:104F80000837BD4680BD00BF00040140A0F1080005
:104F9000FFF7ECBF80B582B000AF78600448032112
:104FA000FBF782F9034618460837BD4680BD00BFAF
:104FB00000040140A0F10800FFF7ECBF90B589B0F4
:104FC00004AFF860B9607A603B60BC683B689AB235
:104FD0003B6A9BB209490091082101910292039317
:104FE00007482146054A042305F00CFE054A7B6864
:104FF0001360002318461437BD4690BD00000240E0
:10500000004400405009002080B582B000AF7860B5
:105010000B46FB7000BF0A488021FCF77DFC03466D
:10502000002B0CBF01230023DBB2002BF3D1FB7854
:105030009BB203481946FCF705FC0837BD4680BD06
:1050400000440040B0B500AF074B1B681B681C68EC
:10505000054B1D680548FCF707FC0346DBB22846F4
:105060001946A047B0BD00BF5009002000440040D1
:1050700080B500AFFFF7E6FF80BD00BF90B589B0F7
:1050800004AFF860B9607A603B60BC683B689AB274
:105090003B6A9BB20A4900914FF400610191029270
:1050A000039308482146064A4FF4806305F0AAFDA1
:1050B000054A7B681360002318461437BD4690BD2F
:1050C00000040240004800405409002080B582B02E
:1050D00000AF78600B46FB7000BF0A488021FCF7E8
:1050E0001BFC0346002B0CBF01230023DBB2002B6B
:1050F000F3D1FB789BB203481946FCF7A3FB0837B2
:10510000BD4680BD0048004080B582B000AF034678
:10511000FB7100BF0A488021FCF7FEFB0346002B11
:105120000CBF01230023DBB2002BF3D1FB799BB230
:1051300003481946FCF786FB0837BD4680BD00BF13
:105140000044004090B585B004AF4FF48E7011F06C
:10515000EBFA044622464FF48E73104600211A469D
:105160000BF010FB2046FCF73BFE0B4B1C600B4B7F
:105170000093082301930023029308230393084814
:105180004FF41651054A042305F03CFD0023184650
:105190000437BD4690BD00BF50090020000002400A
:1051A0000044004080B483B000AF78607B68002288
:1051B000C3F804217B680022C3F808217B681846E5
:1051C0000C37BD465DF8047B704700BF80B485B0E6
:1051D00000AF78600B46FB707B68D3F808315A1C2F
:1051E000114B83FB0213D911D317C91A0B461B02AB
:1051F0000B44D31AFB607B68D3F80421FB689A4206
:1052000001D101230AE07B68D3F808317A68F97884
:10521000D1547B68FA68C3F8082100231846143774
:10522000BD465DF8047B7047817F807F80B483B08A
:1052300000AF78607B68D3F804217B68D3F808312D
:105240009A4201D1012300E0002318460C37BD46E5
:105250005DF8047B704700BF80B485B000AF786014
:105260007B68D3F804217B68D3F808319A4201D1D6
:10527000002317E07B68D3F804317A68D35CFB73B2
:105280007B68D3F80431591C094B83FB0123DA11E5
:10529000CB17D21A13461B021344CA1A7B68C3F8F1
:1052A0000421FB7B18461437BD465DF8047B70472C
:1052B000817F807F80B483B000AF78607B68094ACB
:1052C0001A607B6801225A607B6800221A727B6830
:1052D0004FF07E52DA607B6818460C37BD465DF8A9
:1052E000047B70471017020880B483B000AF786069
:1052F0007B68044A1A607B6818460C37BD465DF827
:10530000047B70472017020880B483B000AF786038
:105310007B68044A1A607B6818460C37BD465DF806
:10532000047B7047F016020880B582B000AF786049
:105330007B681846FFF7D8FF7B6808331846FFF7ED
:10534000E3FF7B68064A1A607B68064A9A607B68BE
:105350000022DA607B6818460837BD4680BD00BF72
:10536000D80802082C09020880B582B000AF786026
:105370007B681846FFF7B8FF7B6808331846FFF7CD
:10538000C3FF7B68064A1A607B68064A9A607B689E
:105390000022DA607B6818460837BD4680BD00BF32
:1053A00060080208B408020880B582B000AF7860D7
:1053B0007B681846FFF798FF7B6808331846FFF7AD
:1053C000A3FF7B68064A1A607B68064A9A607B687E
:1053D0000022DA607B6818460837BD4680BD00BFF2
:1053E000E80702083C08020880B483B000AF786088
:1053F0007B68044A1A607B6818460C37BD465DF826
:10540000047B70472818020880B582B000AF78602E
:105410007B681846FFF7E8FF7B68034A1A607B68E1
:1054200018460837BD4680BD2006020880B582B008
:1054300000AF78607B681846FFF756FF7B68034A29
:105440001A607B6818460837BD4680BD58100208B0
:1054500080B582B000AF78607B681846FFF744FFE4
:105460007B68034A1A607B6818460837BD4680BDD2
:10547000C00E020880B582B000AF78607B68184625
:10548000FFF732FF7B68034A1A607B6818460837CB
:10549000BD4680BD780E020880B582B000AF78604E
:1054A0007B681846FFF720FF7B68034A1A607B6819
:1054B00018460837BD4680BD300E020880B582B060
:1054C00000AF78607B681846FFF70EFF7B68034AE1
:1054D0001A607B6818460837BD4680BDE80D020893
:1054E00080B582B000AF78607B681846FFF7FCFE9D
:1054F0007B68034A1A607B6818460837BD4680BD42
:10550000A00D020880B582B000AF78607B681846B5
:10551000FFF7EAFE7B68034A1A607B681846083783
:10552000BD4680BD580D020880B582B000AF7860DE
:105530007B681846FFF7BEFE7B68034A1A607B68EB
:1055400018460837BD4680BD7006020880B582B097
:1055500000AF78607B681846FFF7ACFE7B68034AB3
:105560001A607B6818460837BD4680BD6006020891
:1055700080B582B000AF78607B681846FFF79AFE6E
:105580007B68034A1A607B6818460837BD4680BDB1
:105590005006020800000000B0B582B000AF78608D
:1055A0007B685A221A607B6828225A607B68C8226E
:1055B0009A607B6800229A617B680022DA617B68CE
:1055C00000221A627B684FF080425A627B68C24AAE
:1055D0009A627B68C14ADA627B68C14A1A637B6857
:1055E000C04A5A637B680022C3F8BC207B68BE4A6D
:1055F00003F1C00415460FCD0FC42B6823607B68F0
:10560000BA4A03F1D40415460FCD0FC42B682360AA
:105610007B684FF00002C3F8EC207B684FF000027B
:10562000C3F8F0207B684FF00002C3F8F4207B68D9
:105630004FF08342C3F8F8207B684FF00002C3F8B4
:1056400004217B684FF00002C3F808217B684FF00B
:105650000002C3F810217B684FF00002C3F8142148
:105660007B684FF00002C3F818217B684FF00002FE
:10567000C3F81C217B684FF00002C3F820217B682F
:105680000022C3F828217B6803F596731846FFF7BC
:10569000BBFE7B6803F59C731846FFF7C7FE7B686B
:1056A00003F5A0731846FFF7D3FE7B6803F5A473D8
:1056B0001846FFF7DFFE7B6803F5A8731846FFF76F
:1056C00033FE7B6803F5B0731846FFF7E5FE7B6891
:1056D00003F5B4731846FFF7F1FE7B6803F5B87362
:1056E0001846FFF741FE7B6803F5C0731846FFF7C5
:1056F000F7FE7B6803F5C4731846FFF703FF7B686A
:1057000003F5C8731846FFF74FFE7B6803F5D073A7
:105710001846FFF709FF7B6803F5D8731846FFF7B3
:1057200015FF7B6803F5E0731846FFF721FF7B68E0
:1057300003F5AC7318466E494FF00002FCF71AFEF1
:105740007B6803F5BC73184669494FF00002FCF70B
:1057500011FE7B6803F5CC73184665494FF00002D3
:10576000FCF708FE7B6803F59C731846FCF7F2FC17
:105770007B6803F5A0731846FCF706FD7B6803F50C
:10578000B0731846FCF700FD7B6803F5C07318463C
:10579000FCF7FAFC7B6803F5A4731846FCF7F4FCED
:1057A0007B6803F5B4731846FCF7EEFC7B6803F5E1
:1057B000C4731846FCF7E8FC7B6803F5967318463B
:1057C0004FF4E13100220823FCF79EFC7B6803F5CF
:1057D000D0731846FFF7A8F87B6803F5D87318460E
:1057E000FFF7CEF87B6803F5E0731846FFF7F2F891
:1057F0007B68DB6A18463F4909F082F903461A467E
:105800007B68DA627B681B6B18463A4909F078F9C5
:1058100003461A467B681A637B685B6B18463549FA
:1058200009F06EF903461A467B685A637B68DB6AA7
:105830001846314909F020FB0346184608F0D4FD0C
:1058400002460B461046194621A3D3E9002308F06F
:105850001FFE02460B461046194609F0FBF80246A9
:105860007B68DA627B681B6B1846234909F004FBEE
:105870000346184608F0B8FD02460B461046194686
:1058800013A3D3E9002308F003FE02460B4610469B
:10589000194609F0DFF802467B681A637B685B6B88
:1058A0001846154909F0E8FA0346184608F09CFD29
:1058B00002460B461046194605A3D3E9002308F01B
:1058C000E7FD02460B461046194609F0C3F815E0FD
:1058D000182D4454FB2109400000A0400000F04175
:1058E0000000B4C200001643801602089416020895
:1058F00000401C460000B4420000344302467B686E
:105900005A637B6818460837BD46B0BDAFF30080C8
:1059100080B582B000AF7860FCF72CF87B68D3F8D4
:1059200028311A464FEAE273821A61EB0303332AE5
:1059300073F10003ACBF01230023DBB2002B09D0BD
:10594000FCF718F802460B467B68C3F828217868F4
:1059500000F076FF0837BD4680BD00BF00000000A4
:10596000B0B582B000AF78607B68DA6A7B689A6312
:105970007B681A6B7B68DA637B685A6B7B681A6496
:105980007B6803F5D0731846FEF7E2FF034618461E
:1059900009F06AF904467B689B69184609F064F9C6
:1059A00003462046194609F0A9F803461C467B68C1
:1059B0009B68184609F058F903462046194609F035
:1059C0005BFA03461C467B685B68184609F04CF995
:1059D00003462046194609F09BF90346184608F08D
:1059E00003FD02460B4610461946C1A3D3E9002326
:1059F00008F04EFD02460B461046194609F02AF8FB
:105A000002467B68DA677B6803F5D8731846FEF7B1
:105A1000C9FF0346184609F027F904467B68DB698D
:105A2000184609F021F903462046194609F066F8A0
:105A300003461C467B689B68184609F015F9034627
:105A40002046194609F018FA03461C467B685B6835
:105A5000184609F009F903462046194609F058F995
:105A60000346184608F0C0FC02460B46104619468D
:105A70009FA3D3E9002308F00BFD02460B46104616
:105A8000194608F0E7FF02467B68C3F880207B6870
:105A900003F5E0731846FEF7AFFF0346184609F01A
:105AA000E3F804467B681B6A184609F0DDF80346F4
:105AB0002046194609F022F803461C467B689B687D
:105AC000184609F0D1F803462046194609F0D4F9E2
:105AD00003461C467B685B68184609F0C5F8034618
